:100000000C9434000C9449000C9449000C94490061
:100010000C9449000C9449000C9449000C9449003C
:100020000C9449000C9449000C9449000C9449002C
:100030000C9449000C9449000C9449000C9449001C
:100040000C9449000C9449000C9449000C9449000C
:100050000C9449000C9449000C9449000C944900FC
:100060000C9449000C94490011241FBECFEFD4E03A
:10007000DEBFCDBF11E0A0E0B1E0EAEFF5E002C0E5
:1000800005900D92A830B107D9F70E9472000C9428
:10009000FB020C940000222311F16F3029F48F5FD2
:1000A000440F840F8F7008956F3131F48D5F440FCA
:1000B000440F840F8F7108956F3339F4895F440FB3
:1000C000440F440F840F8F730895E82FF0E0E40F7E
:1000D000F11DE770F070E050FF4F80810895840FAC
:1000E000862308952F923F924F925F926F927F9254
:1000F0008F929F92AF92BF92CF92DF92EF92FF9238
:100100000F931F93DF93CF93CDB7DEB729970FB629
:10011000F894DEBF0FBECDBF5298539A55985D9AA2
:1001200054985C9A84B18F6384B98AB1806C8AB91F
:1001300087B1837C87B988B18C6388B93898409837
:1001400080E880937A0080E280937C0080917A003E
:10015000876080937A0080917A00806480937A002F
:1001600066247724198618869924AA24BB24CC24D3
:10017000DD24EE24FF2400E01F8281E08E83E2E094
:10018000ED83F3E0FC8384E08B83E5E0EA83F6E033
:10019000F98367E09FEFA7E08A2E3FEF4FEF5FEF15
:1001A00021E00CC0662477247394A9C1662463946B
:1001B000772420E0552D432D322D942D80917A0007
:1001C00084FFFCCF80917A00806180937A00409018
:1001D000790080917A00806480937A00491221E04E
:1001E00026B088E0282236B0E4E03E2286B190E0D6
:1001F000F4E096958795FA95E1F7E1E0F0E08E2737
:100200009F27552453945822231221E0341221E0D1
:10021000551221E0319902C0198610C0F985FF23DB
:1002200019F081E089870AC0E1E0E9879924AA24CE
:10023000BB24CC24DD24EE24FF2400E0222309F497
:1002400070C0552099F0222051F0332021F0142D58
:100250001695169514C0142D12951F7017C03320D3
:1002600011F1142D1695169516951AC0222089F0B5
:10027000332041F0142D169516951695105EEFE378
:100280008E2E17C0142D12951F70185F7FE0872ED9
:1002900010C0332041F0142D169516951695105F59
:1002A0006FE1862E06C0142D12951695177057E033
:1002B000852E812F682D40E0252D0E944B008F83D5
:1002C000812F682D41E0252D0E944B008E83812FC8
:1002D000682D42E0252D0E944B008D83812F682DD3
:1002E00043E0252D0E944B008C83812F682D44E034
:1002F000252D0E944B008B83812F682D45E0252DF5
:100300000E944B008A83812F682D46E0252D0E9494
:100310004B008983812F682D47E0252D0E944B00DB
:10032000682F4A9BEEC0662009F042CF5B984D993A
:1003300062C0992009F42898AA2009F42998BB20C2
:1003400009F42A98CC2009F42B98DD2009F42C9884
:10035000EE2009F42D98FF2009F45F98002309F49A
:100360005E984C9920C0F1E09F1609F4289A81E02C
:10037000A81609F4299AE1E0BE1609F42A9AF1E0D8
:10038000CF1609F42B9A81E0D81609F42C9AE1E0F3
:10039000EE1609F42D9AF1E0FF1609F45F9A013088
:1003A00009F092C060C093948F81891508F4992454
:1003B000A394EE81EA1508F4AA24B394FD81FB15F9
:1003C00008F4BB24C3948C818C1508F4CC24D394FA
:1003D000EB81ED1508F4DD24E394FA81FE1508F4B1
:1003E000EE24F39489818F1508F4FF240F5F6017C2
:1003F00008F06AC068C04C9938C0E1E09E1609F464
:100400002898F1E0AF1609F4299881E0B81609F4AC
:100410002A98E1E0CE1609F42B98F1E0DF1609F4F2
:100420002C9881E0E81609F42D98E1E0FE1609F415
:100430005F98013009F45E98992009F4289AAA205F
:1004400009F4299ABB2009F42A9ACC2009F42B9AA2
:10045000DD2009F42C9AEE2009F42D9AFF2009F4EE
:100460005F9A002389F55E9A2FC09394FF81F91556
:1004700010F428989924A3948E818A1510F4299851
:10048000AA24B394ED81EB1510F42A98BB24C394ED
:10049000FC81FC1510F42B98CC24D3948B818D1502
:1004A00010F42C98DD24E394EA81EE1510F42D98D5
:1004B000EE24F394F981FF1510F45F98FF240F5F89
:1004C000601710F45E9800E0359970CE88858F5FD4
:1004D0008887282F30E0882D90E00196880F991F9B
:1004E000281739070CF462CE6624639477241886A3
:1004F0009924AA24BB24CC24DD24EE24FF2400E08C
:1005000058CE772011F0662454CE5B9A4C9969C07E
:100510004D9920C0E1E09E1609F4289AF1E0AF164B
:1005200009F4299A81E0B81609F42A9AE1E0CE1676
:1005300009F42B9AF1E0DF1609F42C9A81E0E81611
:1005400009F42D9AE1E0FE1609F45F9A013009F5ED
:100550005E9A1FC0F1E09F1609F4289881E0A81662
:1005600009F42998E1E0BE1609F42A98F1E0CF16C3
:1005700009F42B9881E0D81609F42C98E1E0EE16E6
:1005800009F42D98F1E0FF1609F45F98013009F4A1
:100590005E9893948F81891508F49924A394EE8131
:1005A000EA1508F4AA24B394FD81FB1508F4BB24D2
:1005B000C3948C818C1508F4CC24D394EB81ED1575
:1005C00008F4DD24E394FA81FE1508F4EE24F39494
:1005D00089818F1508F4FF240F5F601708F4E2CDBE
:1005E00006C085B18F6385B98BB1806C8BB96624E9
:0A05F00077247394DECDF894FFCF5A
:0805FA000001020305070B0FCD
:00000001FF
