:100000000C9434000C943E000C943E000C943E0082
:100010000C943E000C943E000C943E000C943E0068
:100020000C943E000C943E000C943E000C943E0058
:100030000C943E000C943E000C943E000C943E0048
:100040000C943E000C943E000C943E000C943E0038
:100050000C943E000C943E000C943E000C943E0028
:100060000C943E000C943E0011241FBECFEFD4E050
:10007000DEBFCDBF0E9440000C9469040C940000C8
:100080007F928F929F92AF92BF92CF92DF92EF9228
:10009000FF920F931F93CF93DF935298539A5598E3
:1000A0005D9A54985C9A84B18F6384B98AB1806CEC
:1000B0008AB987B1837C87B988B18C6388B938984D
:1000C000409880E880937A0080E280937C00809161
:1000D0007A00876080937A0080917A0080648093B0
:1000E0007A0030E020E0772406C030E021E010E024
:1000F0000DC031E020E088249924AA24BB24DD240B
:10010000EE24FF2400E0F3CF31E020E080917A007C
:1001100084FFFCCF80917A00806180937A00909177
:10012000790080917A00806480937A0086B18C7027
:1001300039F4492F42954695477097E0C92E17C06C
:10014000883039F4492F42954F70485F8FE0C82EB0
:100150000EC0969596959695843029F4492F405F68
:10016000BFE1CB2E04C0492F405EAFE3CA2E3199C8
:1001700002C077240FC0772019F0772473940AC047
:10018000772473949924AA24BB24DD24EE24FF242D
:1001900000E010E04A9B1DC2332309F0B6CF5B9804
:1001A0004D99EFC0992009F42898AA2009F42998BC
:1001B000BB2009F42A98DD2009F42B98EE2009F4DD
:1001C0002C98FF2009F42D98002309F45F9811233F
:1001D00009F45E988C2D84234C997EC0292D30E043
:1001E000869590E001962817390709F4289AE42F9C
:1001F000F0E0CC2DD0E02A2D30E0CF0101968C2309
:100200009D2362E070E00E9442046F5F7F4F2617DB
:10021000370709F4299A2B2D30E0CF0102968C2361
:100220009D2362E070E00E9442046F5F7F4F2617BB
:10023000370709F42A9A2D2D30E0CF0103968C233D
:100240009D2362E070E00E9442046F5F7F4F26179B
:10025000370709F42B9A2E2D30E0CF0104968C231A
:100260009D2362E070E00E9442046F5F7F4F26177B
:10027000370709F42C9A2F2D30E0CF0105968C23F7
:100280009D2362E070E00E9442046F5F7F4F26175B
:10029000370709F42D9A202F30E0CF0106968C23E2
:1002A0009D2362E070E00E9442046F5F7F4F26173B
:1002B000370709F45F9A212F30E03796CF018C235E
:1002C0009D2362E070E00E9442046F5F7F4F26171B
:1002D000370709F04DC1EEC09394891508F49924AD
:1002E000A39450E06C2D70E02A2D30E0CA010196F5
:1002F00086239723821793070CF4AA24B3942B2DFB
:1003000030E0CA01029686239723821793070CF4E4
:10031000BB24D3942D2D30E0CA0103968623972366
:10032000821793070CF4DD24E3942E2D30E0CA01EC
:10033000049686239723821793070CF4EE24F394F4
:100340002F2D30E0CA010596862397238217930745
:100350000CF4FF240F5F202F30E0CA01069686239D
:100360009723821793070CF400E01F5F812F90E022
:10037000495F5F4F46235723481759070CF0F8C0D1
:10038000F6C08C2D84234C9997C0292D30E086959A
:1003900090E001962817390709F42898E42FF0E037
:1003A000CC2DD0E02A2D30E0CF0101968C239D2367
:1003B00062E070E00E9442046F5F7F4F26173707AC
:1003C00009F429982B2D30E0CF0102968C239D2330
:1003D00062E070E00E9442046F5F7F4F261737078C
:1003E00009F42A982D2D30E0CF0103968C239D230C
:1003F00062E070E00E9442046F5F7F4F261737076C
:1004000009F42B982E2D30E0CF0104968C239D23E8
:1004100062E070E00E9442046F5F7F4F261737074B
:1004200009F42C982F2D30E0CF0105968C239D23C5
:1004300062E070E00E9442046F5F7F4F261737072B
:1004400009F42D98202F30E0CF0106968C239D23B0
:1004500062E070E00E9442046F5F7F4F261737070B
:1004600009F45F98212F30E03796CF018C239D232C
:1004700062E070E00E9442046F5F7F4F26173707EB
:1004800009F45E98992009F4289AAA2009F4299A77
:10049000BB2009F42A9ADD2009F42B9AEE2009F4F6
:1004A0002C9AFF2009F42D9A002309F45F9A112356
:1004B00009F05EC05E9A5CC09394891510F4289888
:1004C0009924A39450E06C2D70E02A2D30E0CA01ED
:1004D0000196862397238217930714F42998AA2458
:1004E000B3942B2D30E0CA010296862397238217FE
:1004F000930714F42A98BB24D3942D2D30E0CA011D
:100500000396862397238217930714F42B98DD24F0
:10051000E3942E2D30E0CA01049686239723821798
:10052000930714F42C98EE24F3942F2D30E0CA0195
:100530000596862397238217930714F42D98FF249A
:100540000F5F202F30E0CA0106968623972382177B
:10055000930714F45F9800E01F5F812F90E0495FDC
:100560005F4F462357234817590714F45E9810E04D
:1005700034991CC02C2D30E0482D4F5F35990AC0AE
:10058000842E842F90E02F5F3F4F220F331F220FC6
:10059000331F07C0842E842F90E02F5F3F4F220F20
:1005A000331F821793070CF0A4CDAECD3599ACCD97
:1005B0008394482D50E02C2D30E02F5F3F4FC90130
:1005C000880F991F820F931F481759070CF091CD80
:1005D0009BCD222311F030E099CD5B9A4C9949C113
:1005E000292D30E08C2D84234D9977C090E0019621
:1005F000959587952817390709F4289AE42FF0E094
:10060000CC2DD0E02A2D30E0CF0101968C239D2304
:10061000019662E070E00E9442042617370709F451
:10062000299A2B2D30E0CF0102968C239D23019631
:1006300062E070E00E9442042617370709F42A9A04
:100640002D2D30E0CF0103968C239D23019662E08F
:1006500070E00E9442042617370709F42B9A2E2DCA
:1006600030E0CF0104968C239D23019662E070E078
:100670000E9442042617370709F42C9A2F2D30E0E8
:10068000CF0105968C239D23019662E070E00E94C5
:1006900042042617370709F42D9A202F30E0CF01A6
:1006A00006968C239D23019662E070E00E9442042E
:1006B0002617370709F45F9A212F30E03796EC238D
:1006C000FD23CF01019662E070E00E9442042617EC
:1006D000370709F077C05E9A75C090E0019695954E
:1006E00087952817390709F42898E42FF0E0CC2DD6
:1006F000D0E02A2D30E0CF0101968C239D23019676
:1007000062E070E00E9442042617370709F4299836
:100710002B2D30E0CF0102968C239D23019662E0C1
:1007200070E00E9442042617370709F42A982D2DFD
:1007300030E0CF0103968C239D23019662E070E0A8
:100740000E9442042617370709F42B982E2D30E01B
:10075000CF0104968C239D23019662E070E00E94F5
:1007600042042617370709F42C982F2D30E0CF01CB
:1007700005968C239D23019662E070E00E9442045E
:100780002617370709F42D98202F30E0CF01069661
:100790008C239D23019662E070E00E94420426179C
:1007A000370709F45F98212F30E03796EC23FD23BB
:1007B000CF01019662E070E00E94420426173707DD
:1007C00009F45E9893948C2D8423891508F4992458
:1007D000A39450E06C2D70E02A2D30E0CA01019600
:1007E00086239723821793070CF4AA24B3942B2D06
:1007F00030E0CA01029686239723821793070CF4F0
:10080000BB24D3942D2D30E0CA0103968623972371
:10081000821793070CF4DD24E3942E2D30E0CA01F7
:10082000049686239723821793070CF4EE24F394FF
:100830002F2D30E0CA010596862397238217930750
:100840000CF4FF240F5F202F30E0CA0106968623A8
:100850009723821793070CF400E01F5F812F90E02D
:10086000495F5F4F46235723481759070CF43DCC87
:1008700006C085B18F6385B98BB1806C8BB930E0D0
:1008800021E044CC97FB092E07260AD077FD04D03F
:100890000CD006D000201AF4709561957F4F089512
:1008A000F6F7909581959F4F0895AA1BBB1B51E1C8
:1008B00007C0AA1FBB1FA617B70710F0A61BB70BD0
:1008C000881F991F5A95A9F780959095BC01CD0175
:0608D0000895F894FFCF2B
:00000001FF
