:100000000C9434000C9449000C9449000C94490061
:100010000C9449000C9449000C9449000C9449003C
:100020000C9449000C9449000C9449000C9449002C
:100030000C9449000C9449000C9449000C9449001C
:100040000C9449000C9449000C9449000C9449000C
:100050000C9449000C9449000C9449000C944900FC
:100060000C9449000C94490011241FBECFEFD4E03A
:10007000DEBFCDBF11E0A0E0B1E0E2EBF7E002C0EF
:1000800005900D92A830B107D9F70E9472000C9428
:10009000D7030C940000222311F16F3029F48F5FF5
:1000A000440F840F8F7008956F3131F48D5F440FCA
:1000B000440F840F8F7108956F3339F4895F440FB3
:1000C000440F440F840F8F730895E82FF0E0E40F7E
:1000D000F11DE770F070E050FF4F80810895840FAC
:1000E000862308952F923F924F925F926F927F9254
:1000F0008F929F92AF92BF92CF92DF92EF92FF9238
:100100000F931F93DF93CF93CDB7DEB729970FB629
:10011000F894DEBF0FBECDBF5298539A55985D9AA2
:1001200054985C9A84B18F6384B98AB1806C8AB91F
:1001300087B1837C87B988B18C6388B93898409837
:1001400080E880937A0080E280937C0080917A003E
:10015000876080937A0080917A00806480937A002F
:1001600066247724198618869924AA24BB24CC24D3
:10017000DD24EE24FF2400E01F8241E04E8382E074
:100180008D83E3E0EC83F4E0FB8315E0212EB6E001
:100190003B2E67E09FEFA7E08A2E3FEF4FEF5FEF28
:1001A00021E00CC06624772473940FC26624639404
:1001B000772420E0552D49813A81942D80917A0051
:1001C00084FFFCCF80917A00806180937A00409018
:1001D000790080917A00806480937A00491221E04E
:1001E00086B188708A83E6B1E470E98386B190E0D5
:1001F000F4E096958795FA95E1F7E1E0F0E08E2737
:100200009F27552453945822FA81F31321E08981C2
:10021000841321E0551221E0319902C0198610C0E3
:10022000E985EE2319F0F1E0F9870AC041E049873A
:100230009924AA24BB24CC24DD24EE24FF2400E04E
:10024000222309F476C05520B1F08A81882359F021
:10025000E981EE2321F0142D1695169517C0142D63
:1002600012951F701AC0F981FF2329F1142D1695DC
:10027000169516951DC04A81442391F089818823E3
:1002800041F0142D169516951695105EEFE38E2EFF
:1002900018C0142D12951F70185F7FE0872E11C0B3
:1002A000E981EE2341F0142D169516951695105FF1
:1002B0006FE1862E06C0142D12951695177057E023
:1002C000852E812F682D40E0252D0E944B008F83C5
:1002D000812F682D41E0252D0E944B008E83812FB8
:1002E000682D42E0252D0E944B008D83812F682DC3
:1002F00043E0252D0E944B008C83812F682D44E024
:10030000252D0E944B008B83812F682D45E0252DE4
:100310000E944B00282E812F682D46E0252D0E943B
:100320004B00382E812F682D47E0252D0E944B0071
:10033000682F4A9B4CC1662009F03ACF5B984D99D3
:1003400091C0992009F42898AA2009F42998BB2083
:1003500009F42A98CC2009F42B98DD2009F42C9874
:10036000EE2009F42D98FF2009F45F98002309F48A
:100370005E984C9951C0292D30E08F81869590E090
:1003800001962817390709F4289A2A2D30E08E8122
:10039000869590E001962817390709F4299A2B2DA4
:1003A00030E08D81869590E001962817390709F491
:1003B0002A9A2C2D30E08C81869590E001962817A2
:1003C000390709F42B9A2D2D30E08B81869590E02A
:1003D00001962817390709F42C9A2E2D30E0822D2A
:1003E000869590E001962817390709F42D9A2F2D4C
:1003F00030E0832D869590E001962817390709F49F
:100400005F9A202F30E0862F869590E0019628177E
:10041000390709F0BFC08FC09394FF81F91508F424
:100420009924A3944E814A1508F4AA24B3948D818B
:100430008B1508F4BB24C394EC81EC1508F4CC2490
:10044000D394FB81FD1508F4DD24E3942E1408F405
:10045000EE24F3943F1408F4FF240F5F601708F0B4
:1004600099C097C04C9969C0292D30E08F8186953D
:1004700090E001962817390709F428982A2D30E0D2
:100480008E81869590E001962817390709F42998FE
:100490002B2D30E08D81869590E001962817390745
:1004A00009F42A982C2D30E08C81869590E00196F5
:1004B0002817390709F42B982D2D30E08B8186956C
:1004C00090E001962817390709F42C982E2D30E07A
:1004D000822D869590E001962817390709F42D980A
:1004E0002F2D30E0832D869590E00196281739074F
:1004F00009F45F98202F30E0862F869590E00196D2
:100500002817390709F45E98992009F4289AAA2037
:1005100009F4299ABB2009F42A9ACC2009F42B9AD1
:10052000DD2009F42C9AEE2009F42D9AFF2009F41D
:100530005F9A002379F55E9A2DC093944F814915F7
:1005400010F428989924A3948E818A1510F4299880
:10055000AA24B394ED81EB1510F42A98BB24C3941C
:10056000FC81FC1510F42B98CC24D3944B814D15B1
:1005700010F42C98DD24E3942E1410F42D98EE241E
:10058000F3943F1410F45F98FF240F5F601710F48A
:100590005E9800E035990ACE88858F5F8887282F7E
:1005A00030E0882D90E00196880F991F28173907B1
:1005B0000CF4FCCD66246394772418869924AA242D
:1005C000BB24CC24DD24EE24FF2400E0F2CD7720F0
:1005D00011F06624EECD5B9A4C99DFC0292D30E0F6
:1005E000EF818E2F90E04D995AC001969595879591
:1005F0002817390709F4289A2A2D30E0FE818F2F19
:1006000090E00196959587952817390709F4299A5E
:100610002B2D30E04D81842F90E0019695958795A4
:100620002817390709F42A9A2C2D30E0EC818E2FF7
:1006300090E00196959587952817390709F42B9A2C
:100640002D2D30E0FB818F2F90E0019695958795B9
:100650002817390709F42C9A2E2D30E0822D90E0CE
:100660000196959587952817390709F42D9A2F2D0E
:1006700030E0832D90E001969595879528173907EE
:1006800009F45F9A202F30E0862F90E0019695952F
:1006900087952817390709F05AC05E9A58C0019605
:1006A000959587952817390709F428982A2D30E061
:1006B0004E81842F90E001969595879528173907EC
:1006C00009F429982B2D30E0ED818E2F90E00196D2
:1006D000959587952817390709F42A982C2D30E02D
:1006E000FC818F2F90E00196959587952817390703
:1006F00009F42B982D2D30E04B81842F90E001964A
:10070000959587952817390709F42C982E2D30E0F8
:10071000822D90E00196959587952817390709F461
:100720002D982F2D30E0832D90E00196959587959B
:100730002817390709F45F98202F30E0862F90E0C2
:100740000196959587952817390709F45E98939433
:100750008F81891508F49924A394EE81EA1508F491
:10076000AA24B394FD81FB1508F4BB24C3944C81E7
:100770004C1508F4CC24D3948B818D1508F4DD241A
:10078000E3942E1408F4EE24F3943F1408F4FF24A9
:100790000F5F601708F406CD06C085B18F6385B979
:1007A0008BB1806C8BB966247724739402CDF89456
:0207B000FFCF79
:0807B2000001020305070B0F13
:00000001FF
